{
  "_format": "hh-sol-artifact-1",
  "contractName": "NFT",
  "sourceName": "contracts/ethereum/NFT.sol",
  "abi": [
    {
      "inputs": [
        {
          "internalType": "address",
          "name": "marketplaceAddress",
          "type": "address"
        }
      ],
      "stateMutability": "nonpayable",
      "type": "constructor"
    },
    {
      "anonymous": false,
      "inputs": [
        {
          "indexed": true,
          "internalType": "address",
          "name": "owner",
          "type": "address"
        },
        {
          "indexed": true,
          "internalType": "address",
          "name": "approved",
          "type": "address"
        },
        {
          "indexed": true,
          "internalType": "uint256",
          "name": "tokenId",
          "type": "uint256"
        }
      ],
      "name": "Approval",
      "type": "event"
    },
    {
      "anonymous": false,
      "inputs": [
        {
          "indexed": true,
          "internalType": "address",
          "name": "owner",
          "type": "address"
        },
        {
          "indexed": true,
          "internalType": "address",
          "name": "operator",
          "type": "address"
        },
        {
          "indexed": false,
          "internalType": "bool",
          "name": "approved",
          "type": "bool"
        }
      ],
      "name": "ApprovalForAll",
      "type": "event"
    },
    {
      "anonymous": false,
      "inputs": [
        {
          "indexed": true,
          "internalType": "address",
          "name": "from",
          "type": "address"
        },
        {
          "indexed": true,
          "internalType": "address",
          "name": "to",
          "type": "address"
        },
        {
          "indexed": true,
          "internalType": "uint256",
          "name": "tokenId",
          "type": "uint256"
        }
      ],
      "name": "Transfer",
      "type": "event"
    },
    {
      "inputs": [
        {
          "internalType": "address",
          "name": "to",
          "type": "address"
        },
        {
          "internalType": "uint256",
          "name": "tokenId",
          "type": "uint256"
        }
      ],
      "name": "approve",
      "outputs": [],
      "stateMutability": "nonpayable",
      "type": "function"
    },
    {
      "inputs": [
        {
          "internalType": "address",
          "name": "owner",
          "type": "address"
        }
      ],
      "name": "balanceOf",
      "outputs": [
        {
          "internalType": "uint256",
          "name": "",
          "type": "uint256"
        }
      ],
      "stateMutability": "view",
      "type": "function"
    },
    {
      "inputs": [
        {
          "internalType": "string",
          "name": "tokenURI",
          "type": "string"
        }
      ],
      "name": "createToken",
      "outputs": [
        {
          "internalType": "uint256",
          "name": "",
          "type": "uint256"
        }
      ],
      "stateMutability": "nonpayable",
      "type": "function"
    },
    {
      "inputs": [],
      "name": "currentTokenId",
      "outputs": [
        {
          "internalType": "uint256",
          "name": "",
          "type": "uint256"
        }
      ],
      "stateMutability": "view",
      "type": "function"
    },
    {
      "inputs": [
        {
          "internalType": "uint256",
          "name": "tokenId",
          "type": "uint256"
        }
      ],
      "name": "getApproved",
      "outputs": [
        {
          "internalType": "address",
          "name": "",
          "type": "address"
        }
      ],
      "stateMutability": "view",
      "type": "function"
    },
    {
      "inputs": [
        {
          "internalType": "address",
          "name": "owner",
          "type": "address"
        },
        {
          "internalType": "address",
          "name": "operator",
          "type": "address"
        }
      ],
      "name": "isApprovedForAll",
      "outputs": [
        {
          "internalType": "bool",
          "name": "",
          "type": "bool"
        }
      ],
      "stateMutability": "view",
      "type": "function"
    },
    {
      "inputs": [],
      "name": "name",
      "outputs": [
        {
          "internalType": "string",
          "name": "",
          "type": "string"
        }
      ],
      "stateMutability": "view",
      "type": "function"
    },
    {
      "inputs": [
        {
          "internalType": "uint256",
          "name": "tokenId",
          "type": "uint256"
        }
      ],
      "name": "ownerOf",
      "outputs": [
        {
          "internalType": "address",
          "name": "",
          "type": "address"
        }
      ],
      "stateMutability": "view",
      "type": "function"
    },
    {
      "inputs": [
        {
          "internalType": "address",
          "name": "from",
          "type": "address"
        },
        {
          "internalType": "address",
          "name": "to",
          "type": "address"
        },
        {
          "internalType": "uint256",
          "name": "tokenId",
          "type": "uint256"
        }
      ],
      "name": "safeTransferFrom",
      "outputs": [],
      "stateMutability": "nonpayable",
      "type": "function"
    },
    {
      "inputs": [
        {
          "internalType": "address",
          "name": "from",
          "type": "address"
        },
        {
          "internalType": "address",
          "name": "to",
          "type": "address"
        },
        {
          "internalType": "uint256",
          "name": "tokenId",
          "type": "uint256"
        },
        {
          "internalType": "bytes",
          "name": "data",
          "type": "bytes"
        }
      ],
      "name": "safeTransferFrom",
      "outputs": [],
      "stateMutability": "nonpayable",
      "type": "function"
    },
    {
      "inputs": [
        {
          "internalType": "address",
          "name": "operator",
          "type": "address"
        },
        {
          "internalType": "bool",
          "name": "approved",
          "type": "bool"
        }
      ],
      "name": "setApprovalForAll",
      "outputs": [],
      "stateMutability": "nonpayable",
      "type": "function"
    },
    {
      "inputs": [
        {
          "internalType": "bytes4",
          "name": "interfaceId",
          "type": "bytes4"
        }
      ],
      "name": "supportsInterface",
      "outputs": [
        {
          "internalType": "bool",
          "name": "",
          "type": "bool"
        }
      ],
      "stateMutability": "view",
      "type": "function"
    },
    {
      "inputs": [],
      "name": "symbol",
      "outputs": [
        {
          "internalType": "string",
          "name": "",
          "type": "string"
        }
      ],
      "stateMutability": "view",
      "type": "function"
    },
    {
      "inputs": [
        {
          "internalType": "uint256",
          "name": "tokenId",
          "type": "uint256"
        }
      ],
      "name": "tokenURI",
      "outputs": [
        {
          "internalType": "string",
          "name": "",
          "type": "string"
        }
      ],
      "stateMutability": "view",
      "type": "function"
    },
    {
      "inputs": [
        {
          "internalType": "address",
          "name": "from",
          "type": "address"
        },
        {
          "internalType": "address",
          "name": "to",
          "type": "address"
        },
        {
          "internalType": "uint256",
          "name": "tokenId",
          "type": "uint256"
        }
      ],
      "name": "transferFrom",
      "outputs": [],
      "stateMutability": "nonpayable",
      "type": "function"
    }
  ],
  "bytecode": "0x60806040523480156200001157600080fd5b5060405162002fbd38038062002fbd83398181016040528101906200003791906200017b565b6040518060400160405280600a81526020017f50697374616368696679000000000000000000000000000000000000000000008152506040518060400160405280600381526020017f50485900000000000000000000000000000000000000000000000000000000008152508160009081620000b4919062000427565b508060019081620000c6919062000427565b50505080600860006101000a81548173ffffffffffffffffffffffffffffffffffffffff021916908373ffffffffffffffffffffffffffffffffffffffff160217905550506200050e565b600080fd5b600073ffffffffffffffffffffffffffffffffffffffff82169050919050565b6000620001438262000116565b9050919050565b620001558162000136565b81146200016157600080fd5b50565b60008151905062000175816200014a565b92915050565b60006020828403121562000194576200019362000111565b5b6000620001a48482850162000164565b91505092915050565b600081519050919050565b7f4e487b7100000000000000000000000000000000000000000000000000000000600052604160045260246000fd5b7f4e487b7100000000000000000000000000000000000000000000000000000000600052602260045260246000fd5b600060028204905060018216806200022f57607f821691505b602082108103620002455762000244620001e7565b5b50919050565b60008190508160005260206000209050919050565b60006020601f8301049050919050565b600082821b905092915050565b600060088302620002af7fffffffffffffffffffffffffffffffffffffffffffffffffffffffffffffffff8262000270565b620002bb868362000270565b95508019841693508086168417925050509392505050565b6000819050919050565b6000819050919050565b60006200030862000302620002fc84620002d3565b620002dd565b620002d3565b9050919050565b6000819050919050565b6200032483620002e7565b6200033c62000333826200030f565b8484546200027d565b825550505050565b600090565b6200035362000344565b6200036081848462000319565b505050565b5b8181101562000388576200037c60008262000349565b60018101905062000366565b5050565b601f821115620003d757620003a1816200024b565b620003ac8462000260565b81016020851015620003bc578190505b620003d4620003cb8562000260565b83018262000365565b50505b505050565b600082821c905092915050565b6000620003fc60001984600802620003dc565b1980831691505092915050565b6000620004178383620003e9565b9150826002028217905092915050565b6200043282620001ad565b67ffffffffffffffff8111156200044e576200044d620001b8565b5b6200045a825462000216565b620004678282856200038c565b600060209050601f8311600181146200049f57600084156200048a578287015190505b62000496858262000409565b86555062000506565b601f198416620004af866200024b565b60005b82811015620004d957848901518255600182019150602085019450602081019050620004b2565b86831015620004f95784890151620004f5601f891682620003e9565b8355505b6001600288020188555050505b505050505050565b612a9f806200051e6000396000f3fe608060405234801561001057600080fd5b50600436106100f45760003560e01c806345576f9411610097578063a22cb46511610066578063a22cb46514610297578063b88d4fde146102b3578063c87b56dd146102cf578063e985e9c5146102ff576100f4565b806345576f94146101e95780636352211e1461021957806370a082311461024957806395d89b4114610279576100f4565b8063081812fc116100d3578063081812fc14610165578063095ea7b31461019557806323b872dd146101b157806342842e0e146101cd576100f4565b80629a9b7b146100f957806301ffc9a71461011757806306fdde0314610147575b600080fd5b61010161032f565b60405161010e919061194e565b60405180910390f35b610131600480360381019061012c91906119d5565b610345565b60405161013e9190611a1d565b60405180910390f35b61014f610427565b60405161015c9190611ac8565b60405180910390f35b61017f600480360381019061017a9190611b16565b6104b9565b60405161018c9190611b84565b60405180910390f35b6101af60048036038101906101aa9190611bcb565b6104ff565b005b6101cb60048036038101906101c69190611c0b565b610616565b005b6101e760048036038101906101e29190611c0b565b610676565b005b61020360048036038101906101fe9190611d93565b610696565b604051610210919061194e565b60405180910390f35b610233600480360381019061022e9190611b16565b6106fa565b6040516102409190611b84565b60405180910390f35b610263600480360381019061025e9190611ddc565b610780565b604051610270919061194e565b60405180910390f35b610281610837565b60405161028e9190611ac8565b60405180910390f35b6102b160048036038101906102ac9190611e35565b6108c9565b005b6102cd60048036038101906102c89190611f16565b6108df565b005b6102e960048036038101906102e49190611b16565b610941565b6040516102f69190611ac8565b60405180910390f35b61031960048036038101906103149190611f99565b610a53565b6040516103269190611a1d565b60405180910390f35b60008061033c6007610ae7565b90508091505090565b60007f80ac58cd000000000000000000000000000000000000000000000000000000007bffffffffffffffffffffffffffffffffffffffffffffffffffffffff1916827bffffffffffffffffffffffffffffffffffffffffffffffffffffffff1916148061041057507f5b5e139f000000000000000000000000000000000000000000000000000000007bffffffffffffffffffffffffffffffffffffffffffffffffffffffff1916827bffffffffffffffffffffffffffffffffffffffffffffffffffffffff1916145b80610420575061041f82610af5565b5b9050919050565b60606000805461043690612008565b80601f016020809104026020016040519081016040528092919081815260200182805461046290612008565b80156104af5780601f10610484576101008083540402835291602001916104af565b820191906000526020600020905b81548152906001019060200180831161049257829003601f168201915b5050505050905090565b60006104c482610b5f565b6004600083815260200190815260200160002060009054906101000a900473ffffffffffffffffffffffffffffffffffffffff169050919050565b600061050a826106fa565b90508073ffffffffffffffffffffffffffffffffffffffff168373ffffffffffffffffffffffffffffffffffffffff160361057a576040517f08c379a0000000000000000000000000000000000000000000000000000000008152600401610571906120ab565b60405180910390fd5b8073ffffffffffffffffffffffffffffffffffffffff16610599610baa565b73ffffffffffffffffffffffffffffffffffffffff1614806105c857506105c7816105c2610baa565b610a53565b5b610607576040517f08c379a00000000000000000000000000000000000000000000000000000000081526004016105fe9061213d565b60405180910390fd5b6106118383610bb2565b505050565b610627610621610baa565b82610c6b565b610666576040517f08c379a000000000000000000000000000000000000000000000000000000000815260040161065d906121cf565b60405180910390fd5b610671838383610d00565b505050565b610691838383604051806020016040528060008152506108df565b505050565b60006106a26007610ff9565b60006106ae6007610ae7565b90506106ba338261100f565b6106c4818461122c565b6106f1600860009054906101000a900473ffffffffffffffffffffffffffffffffffffffff1660016108c9565b80915050919050565b60008061070683611299565b9050600073ffffffffffffffffffffffffffffffffffffffff168173ffffffffffffffffffffffffffffffffffffffff1603610777576040517f08c379a000000000000000000000000000000000000000000000000000000000815260040161076e9061223b565b60405180910390fd5b80915050919050565b60008073ffffffffffffffffffffffffffffffffffffffff168273ffffffffffffffffffffffffffffffffffffffff16036107f0576040517f08c379a00000000000000000000000000000000000000000000000000000000081526004016107e7906122cd565b60405180910390fd5b600360008373ffffffffffffffffffffffffffffffffffffffff1673ffffffffffffffffffffffffffffffffffffffff168152602001908152602001600020549050919050565b60606001805461084690612008565b80601f016020809104026020016040519081016040528092919081815260200182805461087290612008565b80156108bf5780601f10610894576101008083540402835291602001916108bf565b820191906000526020600020905b8154815290600101906020018083116108a257829003601f168201915b5050505050905090565b6108db6108d4610baa565b83836112d6565b5050565b6108f06108ea610baa565b83610c6b565b61092f576040517f08c379a0000000000000000000000000000000000000000000000000000000008152600401610926906121cf565b60405180910390fd5b61093b84848484611442565b50505050565b606061094c82610b5f565b600060066000848152602001908152602001600020805461096c90612008565b80601f016020809104026020016040519081016040528092919081815260200182805461099890612008565b80156109e55780601f106109ba576101008083540402835291602001916109e5565b820191906000526020600020905b8154815290600101906020018083116109c857829003601f168201915b5050505050905060006109f661149e565b90506000815103610a0b578192505050610a4e565b600082511115610a40578082604051602001610a28929190612329565b60405160208183030381529060405292505050610a4e565b610a49846114b5565b925050505b919050565b6000600560008473ffffffffffffffffffffffffffffffffffffffff1673ffffffffffffffffffffffffffffffffffffffff16815260200190815260200160002060008373ffffffffffffffffffffffffffffffffffffffff1673ffffffffffffffffffffffffffffffffffffffff16815260200190815260200160002060009054906101000a900460ff16905092915050565b600081600001549050919050565b60007f01ffc9a7000000000000000000000000000000000000000000000000000000007bffffffffffffffffffffffffffffffffffffffffffffffffffffffff1916827bffffffffffffffffffffffffffffffffffffffffffffffffffffffff1916149050919050565b610b688161151d565b610ba7576040517f08c379a0000000000000000000000000000000000000000000000000000000008152600401610b9e9061223b565b60405180910390fd5b50565b600033905090565b816004600083815260200190815260200160002060006101000a81548173ffffffffffffffffffffffffffffffffffffffff021916908373ffffffffffffffffffffffffffffffffffffffff160217905550808273ffffffffffffffffffffffffffffffffffffffff16610c25836106fa565b73ffffffffffffffffffffffffffffffffffffffff167f8c5be1e5ebec7d5bd14f71427d1e84f3dd0314c0f7b2291e5b200ac8c7c3b92560405160405180910390a45050565b600080610c77836106fa565b90508073ffffffffffffffffffffffffffffffffffffffff168473ffffffffffffffffffffffffffffffffffffffff161480610cb95750610cb88185610a53565b5b80610cf757508373ffffffffffffffffffffffffffffffffffffffff16610cdf846104b9565b73ffffffffffffffffffffffffffffffffffffffff16145b91505092915050565b8273ffffffffffffffffffffffffffffffffffffffff16610d20826106fa565b73ffffffffffffffffffffffffffffffffffffffff1614610d76576040517f08c379a0000000000000000000000000000000000000000000000000000000008152600401610d6d906123bf565b60405180910390fd5b600073ffffffffffffffffffffffffffffffffffffffff168273ffffffffffffffffffffffffffffffffffffffff1603610de5576040517f08c379a0000000000000000000000000000000000000000000000000000000008152600401610ddc90612451565b60405180910390fd5b610df2838383600161155e565b8273ffffffffffffffffffffffffffffffffffffffff16610e12826106fa565b73ffffffffffffffffffffffffffffffffffffffff1614610e68576040517f08c379a0000000000000000000000000000000000000000000000000000000008152600401610e5f906123bf565b60405180910390fd5b6004600082815260200190815260200160002060006101000a81549073ffffffffffffffffffffffffffffffffffffffff02191690556001600360008573ffffffffffffffffffffffffffffffffffffffff1673ffffffffffffffffffffffffffffffffffffffff168152602001908152602001600020600082825403925050819055506001600360008473ffffffffffffffffffffffffffffffffffffffff1673ffffffffffffffffffffffffffffffffffffffff16815260200190815260200160002060008282540192505081905550816002600083815260200190815260200160002060006101000a81548173ffffffffffffffffffffffffffffffffffffffff021916908373ffffffffffffffffffffffffffffffffffffffff160217905550808273ffffffffffffffffffffffffffffffffffffffff168473ffffffffffffffffffffffffffffffffffffffff167fddf252ad1be2c89b69c2b068fc378daa952ba7f163c4a11628f55a4df523b3ef60405160405180910390a4610ff48383836001611564565b505050565b6001816000016000828254019250508190555050565b600073ffffffffffffffffffffffffffffffffffffffff168273ffffffffffffffffffffffffffffffffffffffff160361107e576040517f08c379a0000000000000000000000000000000000000000000000000000000008152600401611075906124bd565b60405180910390fd5b6110878161151d565b156110c7576040517f08c379a00000000000000000000000000000000000000000000000000000000081526004016110be90612529565b60405180910390fd5b6110d560008383600161155e565b6110de8161151d565b1561111e576040517f08c379a000000000000000000000000000000000000000000000000000000000815260040161111590612529565b60405180910390fd5b6001600360008473ffffffffffffffffffffffffffffffffffffffff1673ffffffffffffffffffffffffffffffffffffffff16815260200190815260200160002060008282540192505081905550816002600083815260200190815260200160002060006101000a81548173ffffffffffffffffffffffffffffffffffffffff021916908373ffffffffffffffffffffffffffffffffffffffff160217905550808273ffffffffffffffffffffffffffffffffffffffff16600073ffffffffffffffffffffffffffffffffffffffff167fddf252ad1be2c89b69c2b068fc378daa952ba7f163c4a11628f55a4df523b3ef60405160405180910390a4611228600083836001611564565b5050565b6112358261151d565b611274576040517f08c379a000000000000000000000000000000000000000000000000000000000815260040161126b906125bb565b60405180910390fd5b806006600084815260200190815260200160002090816112949190612787565b505050565b60006002600083815260200190815260200160002060009054906101000a900473ffffffffffffffffffffffffffffffffffffffff169050919050565b8173ffffffffffffffffffffffffffffffffffffffff168373ffffffffffffffffffffffffffffffffffffffff1603611344576040517f08c379a000000000000000000000000000000000000000000000000000000000815260040161133b906128a5565b60405180910390fd5b80600560008573ffffffffffffffffffffffffffffffffffffffff1673ffffffffffffffffffffffffffffffffffffffff16815260200190815260200160002060008473ffffffffffffffffffffffffffffffffffffffff1673ffffffffffffffffffffffffffffffffffffffff16815260200190815260200160002060006101000a81548160ff0219169083151502179055508173ffffffffffffffffffffffffffffffffffffffff168373ffffffffffffffffffffffffffffffffffffffff167f17307eab39ab6107e8899845ad3d59bd9653f200f220920489ca2b5937696c31836040516114359190611a1d565b60405180910390a3505050565b61144d848484610d00565b6114598484848461156a565b611498576040517f08c379a000000000000000000000000000000000000000000000000000000000815260040161148f90612937565b60405180910390fd5b50505050565b606060405180602001604052806000815250905090565b60606114c082610b5f565b60006114ca61149e565b905060008151116114ea5760405180602001604052806000815250611515565b806114f4846116f1565b604051602001611505929190612329565b6040516020818303038152906040525b915050919050565b60008073ffffffffffffffffffffffffffffffffffffffff1661153f83611299565b73ffffffffffffffffffffffffffffffffffffffff1614159050919050565b50505050565b50505050565b600061158b8473ffffffffffffffffffffffffffffffffffffffff166117bf565b156116e4578373ffffffffffffffffffffffffffffffffffffffff1663150b7a026115b4610baa565b8786866040518563ffffffff1660e01b81526004016115d694939291906129ac565b6020604051808303816000875af192505050801561161257506040513d601f19601f8201168201806040525081019061160f9190612a0d565b60015b611694573d8060008114611642576040519150601f19603f3d011682016040523d82523d6000602084013e611647565b606091505b50600081510361168c576040517f08c379a000000000000000000000000000000000000000000000000000000000815260040161168390612937565b60405180910390fd5b805181602001fd5b63150b7a0260e01b7bffffffffffffffffffffffffffffffffffffffffffffffffffffffff1916817bffffffffffffffffffffffffffffffffffffffffffffffffffffffff1916149150506116e9565b600190505b949350505050565b606060006001611700846117e2565b01905060008167ffffffffffffffff81111561171f5761171e611c68565b5b6040519080825280601f01601f1916602001820160405280156117515781602001600182028036833780820191505090505b509050600082602001820190505b6001156117b4578080600190039150507f3031323334353637383961626364656600000000000000000000000000000000600a86061a8153600a85816117a8576117a7612a3a565b5b0494506000850361175f575b819350505050919050565b6000808273ffffffffffffffffffffffffffffffffffffffff163b119050919050565b600080600090507a184f03e93ff9f4daa797ed6e38ed64bf6a1f0100000000000000008310611840577a184f03e93ff9f4daa797ed6e38ed64bf6a1f010000000000000000838161183657611835612a3a565b5b0492506040810190505b6d04ee2d6d415b85acef8100000000831061187d576d04ee2d6d415b85acef8100000000838161187357611872612a3a565b5b0492506020810190505b662386f26fc1000083106118ac57662386f26fc1000083816118a2576118a1612a3a565b5b0492506010810190505b6305f5e10083106118d5576305f5e10083816118cb576118ca612a3a565b5b0492506008810190505b61271083106118fa5761271083816118f0576118ef612a3a565b5b0492506004810190505b6064831061191d576064838161191357611912612a3a565b5b0492506002810190505b600a831061192c576001810190505b80915050919050565b6000819050919050565b61194881611935565b82525050565b6000602082019050611963600083018461193f565b92915050565b6000604051905090565b600080fd5b600080fd5b60007fffffffff0000000000000000000000000000000000000000000000000000000082169050919050565b6119b28161197d565b81146119bd57600080fd5b50565b6000813590506119cf816119a9565b92915050565b6000602082840312156119eb576119ea611973565b5b60006119f9848285016119c0565b91505092915050565b60008115159050919050565b611a1781611a02565b82525050565b6000602082019050611a326000830184611a0e565b92915050565b600081519050919050565b600082825260208201905092915050565b60005b83811015611a72578082015181840152602081019050611a57565b60008484015250505050565b6000601f19601f8301169050919050565b6000611a9a82611a38565b611aa48185611a43565b9350611ab4818560208601611a54565b611abd81611a7e565b840191505092915050565b60006020820190508181036000830152611ae28184611a8f565b905092915050565b611af381611935565b8114611afe57600080fd5b50565b600081359050611b1081611aea565b92915050565b600060208284031215611b2c57611b2b611973565b5b6000611b3a84828501611b01565b91505092915050565b600073ffffffffffffffffffffffffffffffffffffffff82169050919050565b6000611b6e82611b43565b9050919050565b611b7e81611b63565b82525050565b6000602082019050611b996000830184611b75565b92915050565b611ba881611b63565b8114611bb357600080fd5b50565b600081359050611bc581611b9f565b92915050565b60008060408385031215611be257611be1611973565b5b6000611bf085828601611bb6565b9250506020611c0185828601611b01565b9150509250929050565b600080600060608486031215611c2457611c23611973565b5b6000611c3286828701611bb6565b9350506020611c4386828701611bb6565b9250506040611c5486828701611b01565b9150509250925092565b600080fd5b600080fd5b7f4e487b7100000000000000000000000000000000000000000000000000000000600052604160045260246000fd5b611ca082611a7e565b810181811067ffffffffffffffff82111715611cbf57611cbe611c68565b5b80604052505050565b6000611cd2611969565b9050611cde8282611c97565b919050565b600067ffffffffffffffff821115611cfe57611cfd611c68565b5b611d0782611a7e565b9050602081019050919050565b82818337600083830152505050565b6000611d36611d3184611ce3565b611cc8565b905082815260208101848484011115611d5257611d51611c63565b5b611d5d848285611d14565b509392505050565b600082601f830112611d7a57611d79611c5e565b5b8135611d8a848260208601611d23565b91505092915050565b600060208284031215611da957611da8611973565b5b600082013567ffffffffffffffff811115611dc757611dc6611978565b5b611dd384828501611d65565b91505092915050565b600060208284031215611df257611df1611973565b5b6000611e0084828501611bb6565b91505092915050565b611e1281611a02565b8114611e1d57600080fd5b50565b600081359050611e2f81611e09565b92915050565b60008060408385031215611e4c57611e4b611973565b5b6000611e5a85828601611bb6565b9250506020611e6b85828601611e20565b9150509250929050565b600067ffffffffffffffff821115611e9057611e8f611c68565b5b611e9982611a7e565b9050602081019050919050565b6000611eb9611eb484611e75565b611cc8565b905082815260208101848484011115611ed557611ed4611c63565b5b611ee0848285611d14565b509392505050565b600082601f830112611efd57611efc611c5e565b5b8135611f0d848260208601611ea6565b91505092915050565b60008060008060808587031215611f3057611f2f611973565b5b6000611f3e87828801611bb6565b9450506020611f4f87828801611bb6565b9350506040611f6087828801611b01565b925050606085013567ffffffffffffffff811115611f8157611f80611978565b5b611f8d87828801611ee8565b91505092959194509250565b60008060408385031215611fb057611faf611973565b5b6000611fbe85828601611bb6565b9250506020611fcf85828601611bb6565b9150509250929050565b7f4e487b7100000000000000000000000000000000000000000000000000000000600052602260045260246000fd5b6000600282049050600182168061202057607f821691505b60208210810361203357612032611fd9565b5b50919050565b7f4552433732313a20617070726f76616c20746f2063757272656e74206f776e6560008201527f7200000000000000000000000000000000000000000000000000000000000000602082015250565b6000612095602183611a43565b91506120a082612039565b604082019050919050565b600060208201905081810360008301526120c481612088565b9050919050565b7f4552433732313a20617070726f76652063616c6c6572206973206e6f7420746f60008201527f6b656e206f776e6572206f7220617070726f76656420666f7220616c6c000000602082015250565b6000612127603d83611a43565b9150612132826120cb565b604082019050919050565b600060208201905081810360008301526121568161211a565b9050919050565b7f4552433732313a2063616c6c6572206973206e6f7420746f6b656e206f776e6560008201527f72206f7220617070726f76656400000000000000000000000000000000000000602082015250565b60006121b9602d83611a43565b91506121c48261215d565b604082019050919050565b600060208201905081810360008301526121e8816121ac565b9050919050565b7f4552433732313a20696e76616c696420746f6b656e2049440000000000000000600082015250565b6000612225601883611a43565b9150612230826121ef565b602082019050919050565b6000602082019050818103600083015261225481612218565b9050919050565b7f4552433732313a2061646472657373207a65726f206973206e6f74206120766160008201527f6c6964206f776e65720000000000000000000000000000000000000000000000602082015250565b60006122b7602983611a43565b91506122c28261225b565b604082019050919050565b600060208201905081810360008301526122e6816122aa565b9050919050565b600081905092915050565b600061230382611a38565b61230d81856122ed565b935061231d818560208601611a54565b80840191505092915050565b600061233582856122f8565b915061234182846122f8565b91508190509392505050565b7f4552433732313a207472616e736665722066726f6d20696e636f72726563742060008201527f6f776e6572000000000000000000000000000000000000000000000000000000602082015250565b60006123a9602583611a43565b91506123b48261234d565b604082019050919050565b600060208201905081810360008301526123d88161239c565b9050919050565b7f4552433732313a207472616e7366657220746f20746865207a65726f2061646460008201527f7265737300000000000000000000000000000000000000000000000000000000602082015250565b600061243b602483611a43565b9150612446826123df565b604082019050919050565b6000602082019050818103600083015261246a8161242e565b9050919050565b7f4552433732313a206d696e7420746f20746865207a65726f2061646472657373600082015250565b60006124a7602083611a43565b91506124b282612471565b602082019050919050565b600060208201905081810360008301526124d68161249a565b9050919050565b7f4552433732313a20746f6b656e20616c7265616479206d696e74656400000000600082015250565b6000612513601c83611a43565b915061251e826124dd565b602082019050919050565b6000602082019050818103600083015261254281612506565b9050919050565b7f45524337323155524953746f726167653a2055524920736574206f66206e6f6e60008201527f6578697374656e7420746f6b656e000000000000000000000000000000000000602082015250565b60006125a5602e83611a43565b91506125b082612549565b604082019050919050565b600060208201905081810360008301526125d481612598565b9050919050565b60008190508160005260206000209050919050565b60006020601f8301049050919050565b600082821b905092915050565b60006008830261263d7fffffffffffffffffffffffffffffffffffffffffffffffffffffffffffffffff82612600565b6126478683612600565b95508019841693508086168417925050509392505050565b6000819050919050565b600061268461267f61267a84611935565b61265f565b611935565b9050919050565b6000819050919050565b61269e83612669565b6126b26126aa8261268b565b84845461260d565b825550505050565b600090565b6126c76126ba565b6126d2818484612695565b505050565b5b818110156126f6576126eb6000826126bf565b6001810190506126d8565b5050565b601f82111561273b5761270c816125db565b612715846125f0565b81016020851015612724578190505b612738612730856125f0565b8301826126d7565b50505b505050565b600082821c905092915050565b600061275e60001984600802612740565b1980831691505092915050565b6000612777838361274d565b9150826002028217905092915050565b61279082611a38565b67ffffffffffffffff8111156127a9576127a8611c68565b5b6127b38254612008565b6127be8282856126fa565b600060209050601f8311600181146127f157600084156127df578287015190505b6127e9858261276b565b865550612851565b601f1984166127ff866125db565b60005b8281101561282757848901518255600182019150602085019450602081019050612802565b868310156128445784890151612840601f89168261274d565b8355505b6001600288020188555050505b505050505050565b7f4552433732313a20617070726f766520746f2063616c6c657200000000000000600082015250565b600061288f601983611a43565b915061289a82612859565b602082019050919050565b600060208201905081810360008301526128be81612882565b9050919050565b7f4552433732313a207472616e7366657220746f206e6f6e20455243373231526560008201527f63656976657220696d706c656d656e7465720000000000000000000000000000602082015250565b6000612921603283611a43565b915061292c826128c5565b604082019050919050565b6000602082019050818103600083015261295081612914565b9050919050565b600081519050919050565b600082825260208201905092915050565b600061297e82612957565b6129888185612962565b9350612998818560208601611a54565b6129a181611a7e565b840191505092915050565b60006080820190506129c16000830187611b75565b6129ce6020830186611b75565b6129db604083018561193f565b81810360608301526129ed8184612973565b905095945050505050565b600081519050612a07816119a9565b92915050565b600060208284031215612a2357612a22611973565b5b6000612a31848285016129f8565b91505092915050565b7f4e487b7100000000000000000000000000000000000000000000000000000000600052601260045260246000fdfea264697066735822122025ebd442e7c131666f92aa18071e9eb0d362b85aea08266ff5003743b398520a64736f6c63430008110033",
  "linkReferences": {},
  "deployedLinkReferences": {}
}